23700041C7003045 201001001000101123456              0343490000000056567 TCPAR HOLDING LTDA                                                    RUA URUGUAI                   00122SALA 3         ITAJAI              88302200SC01                
2370004300001A0000180010898100000006677662 ARTHUR DENT                   0000000000000000007805042021BRL000000000000000000000000564332                    00000000000000000000000                                          00010CC   0          
2370004300002B   100056756756756AV ARMACAO                    08987               CENTRO         NAVEGANTES          88370300SC05042021000000000564332000000000000000000000000000000000000000000000000000000000000               000000000000000
2370004300003A0000180770000100000001234567 FORD PREFECT                  0000000000000000007805042021BRL000000000000000000000001032399                    00000000000000000000000                                          00010CC   0          
2370004300004B   100012312312312AV ATLANTICA                  02345               BARRA SUL      BALNEARIO CAMBORIU  88990123SC05042021000000001032399000000000000000000000000000000000000000000000000000000000000               000000000000000
23700045         000006000000000001596731000000000000000000000000                                                                                                                                                                               