23700041C7003045 201001001000101123456              0343490000000056567 TCPAR HOLDING LTDA                                                    RUA URUGUAI                   00122SALA 3         ITAJAI              88302200SC01                
2370004300001A0000182370454540000005656565 DARTH VADER                   0000000000000000007805042021BRL000000000000000000000000076734                    00000000000000000000000                                          00010CC   0          
2370004300002B   100012312312312ROD OSVALDO REIS              02345               FAZENDA        ITAJAI              88990123SC05042021000000000076734000000000000000000000000000000000000000000000000000000000000               000000000000000
23700045         000004000000000000076734000000000000000000000000                                                                                                                                                                               